:100000000C945E000C9408060C9408060C940806E8
:100010000C9408060C9408060C9408060C94080628
:100020000C9408060C9408060C9408060C94080618
:100030000C9408060C9408060C9408060C94080608
:100040000C9408060C9408060C9408060C940806F8
:100050000C9408060C9408060C9408060C940806E8
:100060000C9408060C9408060C9408060C940806D8
:100070000C9408060C9408060C9408060C940806C8
:100080000C9408060C9408060C9408060C940806B8
:100090000C9408060C9408060C9408060C940806A8
:1000A0000C9408060C9408060C9408060C94080698
:1000B0000C940806010001EE000C140011241FBE70
:1000C000CFEFD8E0DEBFCDBFE4EBF0E040E017C0FB
:1000D000B591A59135912591059107FD0CC095919C
:1000E0008591EF01F92FE82F05900D92A217B30724
:1000F000D9F7FE0104C01D92A217B307E1F7EB3B4D
:10010000F40731F70E9469020C948600F894FFCF3F
:10011000ABE0B0E0EEE8F0E00C94D5046C017B01BC
:100120008A01FC0117821682838181FFCCC1CE0136
:1001300001963C01F6019381F70193FD859193FFB0
:1001400081917F01882309F4BAC1853239F493FD86
:10015000859193FF81917F01853229F4B60190E06A
:100160000E94F703E7CF912C212C312CFFE1F315EE
:10017000D8F08B3279F038F4803279F08332A1F400
:10018000232D20611DC08D3261F0803369F4232D51
:10019000216016C0832D8260382EE32DE4603E2E50
:1001A0002AC0F32DF8601DC037FC2DC020ED280FAC
:1001B0002A3040F08E32B9F436FC81C1232D206400
:1001C000322E19C036FE06C08AE0989E200D1124FA
:1001D000922E11C0EAE02E9E200D1124222EF32D26
:1001E000F0623F2E08C08C3621F4832D8068382EB3
:1001F00002C0883641F4F70193FD859193FF819108
:100200007F018111B3CF982F9F7D9554933028F4AF
:100210000C5F1F4F9FE399830DC0833631F0833706
:1002200071F0833509F059C021C0F80180818983BC
:100230000E5F1F4F88248394912C530113C0280113
:10024000F2E04F0E511CF801A080B18036FE03C0D1
:10025000692D70E002C06FEF7FEFC5010E94C805F5
:100260004C018201F32DFF773F2E16C0280122E0BA
:10027000420E511CF801A080B18036FE03C0692DEA
:1002800070E002C06FEF7FEFC5010E94BD054C0119
:10029000F32DF0683F2E820133FC1BC0822D90E0CD
:1002A00088169906B0F4B60180E290E00E94F70348
:1002B0002A94F4CFF50137FC859137FE81915F01D7
:1002C000B60190E00E94F70321102A9421E0821ADF
:1002D00091088114910471F7E8C0843611F08936D1
:1002E00041F5F80137FE07C06081718182819381F9
:1002F0000C5F1F4F08C060817181072E000C880BB6
:10030000990B0E5F1F4FF32DFF763F2E97FF09C00D
:1003100090958095709561957F4F8F4F9F4FF068B6
:100320003F2E2AE030E0A3010E94CA02882E8618E0
:1003300045C0853731F4232D2F7EB22E2AE030E0E0
:1003400025C0932D997FB92E8F36C1F018F48835CA
:1003500079F0B5C0803719F0883721F0B0C0E92FA7
:10036000E061BE2EB4FE0DC0FB2DF460BF2E09C0AF
:1003700034FE0AC0292F2660B22E06C028E030E0E5
:1003800005C020E130E002C020E132E0F801B7FE14
:1003900007C060817181828193810C5F1F4F06C00D
:1003A0006081718180E090E00E5F1F4FA3010E9489
:1003B000CA02882E8618FB2DFF773F2E36FE0DC011
:1003C000232D2E7FA22E891458F434FE0BC032FC4C
:1003D00009C0832D8E7EA82E05C0B82CA32C03C087
:1003E000B82C01C0B92CA4FE0FC0FE01E80DF11D10
:1003F0008081803321F49A2D997EA92E09C0A2FE16
:1004000006C0B394B39404C08A2D867809F0B394DF
:10041000A3FC11C0A0FE06C0B21488F4280C922CD4
:100420009B180EC0B21460F4B60180E290E00E9406
:10043000F703B394F7CFB21418F42B1802C0982C1A
:10044000212CA4FE10C0B60180E390E00E94F703C7
:10045000A2FE17C0A1FC03C088E790E002C088E5B7
:1004600090E0B6010CC08A2D867859F0A1FE02C03A
:100470008BE201C080E2A7FC8DE2B60190E00E9411
:10048000F703891438F4B60180E390E00E94F70383
:100490009A94F7CF8A94F301E80DF11D8081B6019B
:1004A00090E00E94F7038110F5CF222009F442CE9C
:1004B000B60180E290E00E94F7032A94F6CFF6019D
:1004C0008681978102C08FEF9FEF2B96E2E10C941B
:0204D000F10435
:1004D200CF93DF93CDB7DEB7DA950FB6F894DEBFD0
:1004E2000FBECDBFE0E8F0E0808181688083E1E863
:1004F200F0E080818C60808317B880E480937C0078
:1005020087E880937A000E94FF0560EF87E00E94EF
:10051200750560E086E00E9475050E94280360E090
:1005220083E00E94750587E690E00E94A50580ECB5
:1005320091E00E94870560E071E0CE0101960E9481
:10054200B2046DEC71E0CE0101960E940C05892B7C
:1005520091F3CE0101960E9496052FEF83ED90E371
:10056200215080409040E1F700C000000E94D30576
:1005720081EE91E00E94870560E071E0CE01019674
:100582000E94B20461E070E0CE0101960E94BB03BA
:02059200FFCF99
:10059400FA01AA27283051F1203181F1E8946F93B0
:1005A4006E7F6E5F7F4F8F4F9F4FAF4FB1E03ED056
:1005B400B4E03CD0670F781F891F9A1FA11D680FF4
:1005C400791F8A1F911DA11D6A0F711D811D911D27
:1005D400A11D20D009F468943F912AE0269F11249C
:1005E4003019305D3193DEF6CF010895462F477000
:1005F400405D4193B3E00FD0C9F7F6CF462F4F705B
:10060400405D4A3318F0495D31FD4052419302D0B8
:10061400A9F7EACFB4E0A69597958795779567955E
:10062400BA95C9F700976105710508959B01AC015E
:100634000A2E06945795479537952795BA95C9F785
:0C064400620F731F841F951FA01D0895F6
:10065000CF93DF932FEF83EC99E0215080409040BF
:10066000E1F700C00000C3E0D0E060E382E00E9458
:10067000750580E00E945005682F686082E00E9446
:1006800075050000000080E00E945005682F677F1C
:1006900082E00E94750587EE93E00197F1F700C0B4
:1006A0000000219711F760E282E00E94750580E06A
:1006B0000E945005682F686082E00E947505000066
:1006C000000080E00E945005682F677F82E00E9452
:1006D000750587EE93E00197F1F700C0000088E20E
:1006E0000E943B058CE00E943B050E94D30586E0FA
:0A06F0000E943B05DF91CF910895B1
:1006FA00CF93C82F80E00E9450059C2F907F8F7067
:10070A00682F690F82E00E94750580E00E945005FB
:10071A00682F686082E00E9475050000000080E092
:10072A000E945005682F677F82E00E947505C29576
:10073A0080E00E945005C07F8F70682F6C0F82E0A6
:10074A000E94750580E00E945005682F686082E06B
:10075A000E9475050000000080E00E945005682F85
:0C076A00677F82E00E947505CF91089522
:10077600CF93DF93C62FD72F62EA71E00E94E6057A
:10078600892BB1F4DF93CF938DEA91E09F938F93FA
:100796001F928AE08F931F921F920E9433048DB797
:1007A6009EB708960FB6F8949EBF0FBE8DBF15C0B4
:1007B600DF93CF9388EB91E09F938F931F9287E00F
:1007C6008F931F921F920E9433048DB79EB708968F
:1007D6000FB6F8949EBF0FBE8DBF80E090E00E94DA
:0807E6009605DF91CF91089503
:1007EE000F931F93CF93DF93FB01238121FD03C052
:1007FE008FEF9FEF2CC022FF16C0468157812481B8
:10080E0035814217530744F4A081B1819D012F5FBA
:10081E003F4F318320838C93268137812F5F3F4F4B
:10082E003783268314C08B01EC01FB010084F18514
:10083E00E02D0995892BE1F6D80116968D919C91A4
:10084E001797019617969C938E931697CE01DF916C
:08085E00CF911F910F91089545
:10086600AEE0B0E0E9E3F4E00C94E3040D891E8900
:100876008F89988D26E02C831A83098397FF02C0FF
:1008860080E090E801979E838D83AE01455E5F4FC1
:10089600698D7A8DCE0101960E9488004D815E8118
:1008A60057FD0AC02F813885421753070CF49A0169
:1008B600F801E20FF31F10822E96E4E00C94FF0479
:1008C600CF93DF93ECEBF0E024EAA9EBB0E0CBEBBF
:1008D600D0E034E844E9208390819923ECF79C9199
:1008E600987F983011F09031B1F7888330839081EA
:1008F6009923ECF79C91987F903211F0983529F462
:100906004083908194FDFDCFE6CFDF91CF9108958E
:1009160094EA9093BC00ECEBF0E090819923ECF71D
:100926009091B900987F983011F09031A1F480939E
:10093600BB0084E88093BC00ECEBF0E08081882368
:10094600ECF79091B900987F983139F081E09034B6
:0E09560029F480E0089581E0089580E008957E
:10096400EF92FF920F931F93CF93DF937C01C0E02C
:10097400D0E08B01015011090E94F7059E01C017B8
:10098400D10728F42196F701E20FF31F80838A3000
:1009940099F7CE0DDF1D1882DF91CF911F910F9132
:0609A400FF90EF900895A2
:1009AA002F923F924F925F926F927F928F929F9275
:1009BA00AF92BF92CF92DF92EF92FF920F931F9363
:1009CA00CF93DF93CDB7DEB7CA1BDB0B0FB6F89414
:0809DA00DEBF0FBECDBF099482
:1009E2002A88398848885F846E847D848C849B84BD
:1009F200AA84B984C884DF80EE80FD800C811B81CB
:100A0200AA81B981CE0FD11D0FB6F894DEBF0FBEF9
:060A1200CDBFED010895C7
:100A1800FB0151915523A9F0BF01DC014D91451708
:100A28004111E1F759F4CD010190002049F04D91B1
:100A380040154111C9F3FB014111EFCF81E090E06E
:040A48000197089575
:100A4C00CF93C82F80E00E945005682F646082E02D
:100A5C000E9475058C2F0E947D0387EE93E0019711
:0A0A6C00F1F700C00000CF910895DB
:100A7600CF93C82F80E00E945005682F6B7F82E0DD
:100A86000E9475058C2F0E947D0387EE93E00197E7
:0A0A9600F1F700C00000CF910895B1
:100AA000CF93C82F80E40E9463048C2F0E946305BB
:100AB00081E40E9405060E94B205C82F0E94DD0550
:060AC0008C2FCF91089578
:100AC6008093BB0084E88093BC00ECEBF0E080816F
:100AD6008823ECF79091B900987F81E0983209F469
:040AE60080E008950F
:100AEA00CF93DF93D82FC62F80E40E9463048D2F03
:100AFA000E9463058C2F0E9463050E94DD05DF9129
:040B0A00CF910895EA
:100B0E00CF93DF93EC018881882331F021960E94E8
:0E0B1E00EF0589918111FBCFDF91CF910895F2
:100B2C00CF93DF93EC018881882331F021960E94CA
:0E0B3C00260589918111FBCFDF91CF9108959D
:100B4A001092C00028E12093C1009093C5008093C1
:0A0B5A00C40086E08093C2000895F5
:100B640084E88093BC00ECEBF0E080818823ECF710
:060B74008091BB00089512
:100B7A00FC010590615070400110D8F7809590955E
:060B8A008E0F9F1F08956D
:100B9000FC016150704001900110D8F7809590954C
:060BA0008E0F9F1F089557
:100BA60081E00E943B058FE19EE40197F1F700C0CA
:040BB600000008959E
:100BBA0084E98093BC00ECEBF0E0808184FDFDCFFA
:020BCA0008958C
:100BCC00FB01DC018D91019080190110D9F3990B77
:020BDC0008957A
:100BDE00E0ECF0E0908195FFFDCF8093C600089584
:100BEE00E0ECF0E080818823ECF78091C600089558
:0C0BFE001092B90088E48093B8000895BC
:060C0A000E948B04089516
:040C10000C94000040
:100C14004553503A7061796C6F61643A5B7B226E24
:100C2400616D65223A202274656D70657261747518
:100C34007265222C2276616C7565223A2022256326
:100C440025632E2563227D2C7B226E616D65223AFD
:100C540020227072657373757265222C2276616C22
:100C64007565223A2022256325632E2563227D2C77
:100C74007B226E616D65223A20227465616D222C9F
:100C84002276616C7565223A20222564227D2C7BB4
:100C9400226E616D65223A20227374617475732229
:100CA4002C2276616C7565223A20222573227D5DA3
:100CB4000A002253756363657373220A0025642E48
:100CC400537563636573730025642E4661696C0014
:100CD4004553503A726573746172740A00576169BE
:100CE40074696E6720666F7220636F6D6D616E64E8
:0E0CF400004553503A436F6E6E6563740A00FC
:00000001FF
