:100000000C945A000C9424010C9424010C942401A7
:100010000C9424010C9424010C9424010C942401CC
:100020000C9424010C9424010C9424010C942401BC
:100030000C9424010C9424010C9424010C942401AC
:100040000C9424010C9424010C9424010C9424019C
:100050000C9424010C9424010C9424010C9424018C
:100060000C9424010C9424010C9424010C9424017C
:100070000C9424010C9424010C9424010C9424016C
:100080000C9424010C9424010C9424010C9424015C
:100090000C9424010C9424010C9424010C9424014C
:1000A0000C9424010C9424010C9424010C9424013C
:1000B0000C94240111241FBECFEFD8E0DEBFCDBFCA
:0C00C0000E94B5000C946400F894FFCF7F
:1000CC00CF93DF93ECEBF0E024EAA9EBB0E0CBEBC1
:1000DC00D0E034E844E9208390819923ECF79C919B
:1000EC00987F983011F09031B1F7888330839081EC
:1000FC009923ECF79C91987F903211F0983529F464
:10010C004083908194FDFDCFE6CFDF91CF91089590
:10011C0094EA9093BC00ECEBF0E090819923ECF71F
:10012C009091B900987F983011F09031A1F48093A0
:10013C00BB0084E88093BC00ECEBF0E0808188236A
:10014C00ECF79091B900987F983139F081E09034B8
:0E015C0029F480E0089581E0089580E0089580
:10016A000E941B0160E086E00E94F50060EF87E0D4
:10017A000E94F50081E00E94D00062E082E00E94C5
:10018A00F5002FEF89E698E1215080409040E1F791
:06019A0000C00000EFCFE1
:1001A000CF93C82F80E40E9466008C2F0E94E3004A
:1001B00081E40E9421010E940701C82F0E941201C0
:0601C0008C2FCF91089581
:1001C6008093BB0084E88093BC00ECEBF0E0808178
:1001D6008823ECF79091B900987F81E0983209F472
:0401E60080E0089518
:1001EA00CF93DF93D82FC62F80E40E9466008D2F0D
:1001FA000E94E3008C2F0E94E3000E941201DF910B
:04020A00CF910895F3
:10020E0084E88093BC00ECEBF0E080818823ECF76F
:06021E008091BB00089571
:1002240084E98093BC00ECEBF0E0808184FDFDCF99
:0202340008952B
:0C0236001092B90088E48093B80008958D
:060242000E948E000895E9
:040248000C94000012
:00000001FF
