:020000020000FC
:1000000007C0051A2E43576C8094A9BDD2E6FB00A9
:1000100008E00EBF0FEF0DBFE2E0F0E080E293E0FA
:100020000FEF04B900270AB901E800938000002708
:100030000CE000938100E395E395E395E395E39568
:10004000E39514911093880029B113D02095322F95
:1000500028703071283019F0303131F0F3CF1B3F68
:1000600089F3E3951491EECF153061F3EA9514917D
:10007000E9CF8F939F9305D00197E9F78F919F91D7
:0E008000089557EF00005A95E9F70000089523
:00000001FF
