:020000020000FC
:0200000004C03A
:1000080021C02FEF2DBF28E02EBF80E89EE328E017
:100018002093690022E02DBB78942FEF24B9222782
:100028002AB9332735B9FDCF8F939F9305D0019710
:10003800E9F79F918F91089557EF5A950000E9F7D6
:10004800000008952FB72F93789422E02CBB0E94CC
:1000580020000E9420000E9420002CB32270223031
:10006800A1F33170313021F43FEF35B90E94180007
:1000780031E035B90E9418000E9418000E9418004B
:100088000E9418000E9418002F912FBFF89418950D
:00000001FF
