:020000020000FC
:020000002AC014
:1000540020C008E00EBF0FEF0DBF01E400937C0049
:100064000FE800937A0078948FEF8AB9882787B9CC
:100074008827A2D084E690E0CED000917A00006474
:1000840000937A000BD05CD034D084E690E0C3D0E7
:10009400F4CFA0917800B09179001895CA2FDB2F86
:1000A400CC0FDD1FCC0FDD1FCC0FDD1FEC2FFD2F80
:1000B400CC0FDD1FEC0FFD1FEA0FFB1FF695E79534
:1000C400F695E795F695E795F695E795CE2FDF2F0C
:1000D400EE0FFF1FEE0FFF1FEC0FFD1FF695E795C8
:1000E400F695E795F695E795F695E795AE2FBF2F2C
:1000F400089500E3200F300F400F80E851D08AE0CC
:10010400992789D0822F46D08AE0992784D081E824
:1001140047D08AE099277FD08EE23CD08AE09927A5
:100124007AD082E83DD08AE0992775D0832F32D0E7
:1001340083E836D08AE099276ED0842F2BD0089597
:1001440022273327442754E660E0B61711F4A51795
:1001540020F0A51BB60B2395F7CF5AE0A51720F086
:10016400A51BB60B3395FACF4A2F08958F9399B1F7
:100174009F70807F890F8BB95B9A000000005B98A9
:100184008F918295807F890F8BB95B9A0000000064
:100194005B9808955A9AEADF8AEF90E048D0089570
:1001A4005A98E4DF8AEF90E042D0089581E0F8DFC6
:1001B40085E090E030D0089588EC90E02CD080E386
:1001C4008BB95B9A000000005B988AEF90E02FD017
:1001D40080E38BB95B9A000000005B988AEF90E0A3
:1001E40026D080E38BB95B9A000000005B988AEF0D
:1001F40090E01DD080E28BB95B9A000000005B9810
:100204008AEF90E014D088E2CBDF8CE0C9DFCEDF48
:1002140086E0C6DF08958F939F9387EE93E007D01F
:100224009F918F91000000000197A9F7089501970D
:100234000E941E01E1F70895000000000000000084
:0202440008951B
:00000001FF
